{
  "_format": "hh-sol-artifact-1",
  "contractName": "FlashLoan",
  "sourceName": "contracts/FlashLoan.sol",
  "abi": [
    {
      "inputs": [
        {
          "internalType": "uint256",
          "name": "_fee",
          "type": "uint256"
        },
        {
          "internalType": "address",
          "name": "_poolAddress",
          "type": "address"
        }
      ],
      "stateMutability": "nonpayable",
      "type": "constructor"
    },
    {
      "anonymous": false,
      "inputs": [
        {
          "indexed": true,
          "internalType": "address",
          "name": "previousOwner",
          "type": "address"
        },
        {
          "indexed": true,
          "internalType": "address",
          "name": "newOwner",
          "type": "address"
        }
      ],
      "name": "OwnershipTransferred",
      "type": "event"
    },
    {
      "inputs": [
        {
          "internalType": "address",
          "name": "_userContract",
          "type": "address"
        },
        {
          "internalType": "address",
          "name": "_tokenAddress",
          "type": "address"
        },
        {
          "internalType": "uint256",
          "name": "_amount",
          "type": "uint256"
        }
      ],
      "name": "borrowTokens",
      "outputs": [],
      "stateMutability": "nonpayable",
      "type": "function"
    },
    {
      "inputs": [],
      "name": "fee",
      "outputs": [
        {
          "internalType": "uint256",
          "name": "",
          "type": "uint256"
        }
      ],
      "stateMutability": "view",
      "type": "function"
    },
    {
      "inputs": [],
      "name": "owner",
      "outputs": [
        {
          "internalType": "address",
          "name": "",
          "type": "address"
        }
      ],
      "stateMutability": "view",
      "type": "function"
    },
    {
      "inputs": [],
      "name": "poolAddress",
      "outputs": [
        {
          "internalType": "address",
          "name": "",
          "type": "address"
        }
      ],
      "stateMutability": "view",
      "type": "function"
    },
    {
      "inputs": [],
      "name": "renounceOwnership",
      "outputs": [],
      "stateMutability": "nonpayable",
      "type": "function"
    },
    {
      "inputs": [
        {
          "internalType": "address",
          "name": "newOwner",
          "type": "address"
        }
      ],
      "name": "transferOwnership",
      "outputs": [],
      "stateMutability": "nonpayable",
      "type": "function"
    }
  ],
  "bytecode": "0x608060405234801561001057600080fd5b506040516108e83803806108e883398101604081905261002f916100b6565b61003833610066565b60018055600291909155600380546001600160a01b0319166001600160a01b039092169190911790556100f3565b600080546001600160a01b038381166001600160a01b0319831681178455604051919092169283917f8be0079c531659141344cd1fd0a4f28419497f9722a3daafe3b4186f6b6457e09190a35050565b600080604083850312156100c957600080fd5b825160208401519092506001600160a01b03811681146100e857600080fd5b809150509250929050565b6107e6806101026000396000f3fe608060405234801561001057600080fd5b50600436106100625760003560e01c80631755ff2114610067578063715018a6146100975780638da5cb5b146100a1578063bd9e9683146100b2578063ddca3f43146100c5578063f2fde38b146100dc575b600080fd5b60035461007a906001600160a01b031681565b6040516001600160a01b0390911681526020015b60405180910390f35b61009f6100ef565b005b6000546001600160a01b031661007a565b61009f6100c03660046106f1565b61015a565b6100ce60025481565b60405190815260200161008e565b61009f6100ea3660046106cf565b610598565b6000546001600160a01b0316331461014e5760405162461bcd60e51b815260206004820181905260248201527f4f776e61626c653a2063616c6c6572206973206e6f7420746865206f776e657260448201526064015b60405180910390fd5b6101586000610663565b565b600260015414156101ad5760405162461bcd60e51b815260206004820152601f60248201527f5265656e7472616e637947756172643a207265656e7472616e742063616c6c006044820152606401610145565b60026001556003546040516370a0823160e01b81526001600160a01b03918216600482015282918416906370a082319060240160206040518083038186803b1580156101f857600080fd5b505afa15801561020c573d6000803e3d6000fd5b505050506040513d601f19601f82011682018060405250810190610230919061074f565b10156102775760405162461bcd60e51b8152602060048201526016602482015275416d6f756e7420657863656564732062616c616e636560501b6044820152606401610145565b600354604051636eb1769f60e11b81526001600160a01b039182166004820152306024820152829184169063dd62ed3e9060440160206040518083038186803b1580156102c357600080fd5b505afa1580156102d7573d6000803e3d6000fd5b505050506040513d601f19601f820116820180604052508101906102fb919061074f565b10156103405760405162461bcd60e51b8152602060048201526014602482015273105b1b1bddd85b98d9481a5cc81b9bdd081cd95d60621b6044820152606401610145565b6003546040516323b872dd60e01b81526001600160a01b03918216600482015233602482015260448101839052908316906323b872dd90606401602060405180830381600087803b15801561039457600080fd5b505af11580156103a8573d6000803e3d6000fd5b505050506040513d601f19601f820116820180604052508101906103cc919061072d565b50600081600254836103de919061078e565b6103e89190610768565b6040516370a0823160e01b81523360048201529091506001600160a01b038416906370a082319060240160206040518083038186803b15801561042a57600080fd5b505afa15801561043e573d6000803e3d6000fd5b505050506040513d601f19601f82011682018060405250810190610462919061074f565b8111156104b15760405162461bcd60e51b815260206004820181905260248201527f596f7520646f6e27742068617665206e6f7420656e6f75676820746f6b656e736044820152606401610145565b600354604051627201b360e21b81526001600160a01b038581166004830152918216602482015260448101839052908516906301c806cc90606401600060405180830381600087803b15801561050657600080fd5b505af115801561051a573d6000803e3d6000fd5b5050505060006002548361052e919061078e565b6003546040516363c5b6f560e11b8152600481018390529192506001600160a01b03169063c78b6dea90602401600060405180830381600087803b15801561057557600080fd5b505af1158015610589573d6000803e3d6000fd5b50506001805550505050505050565b6000546001600160a01b031633146105f25760405162461bcd60e51b815260206004820181905260248201527f4f776e61626c653a2063616c6c6572206973206e6f7420746865206f776e65726044820152606401610145565b6001600160a01b0381166106575760405162461bcd60e51b815260206004820152602660248201527f4f776e61626c653a206e6577206f776e657220697320746865207a65726f206160448201526564647265737360d01b6064820152608401610145565b61066081610663565b50565b600080546001600160a01b038381166001600160a01b0319831681178455604051919092169283917f8be0079c531659141344cd1fd0a4f28419497f9722a3daafe3b4186f6b6457e09190a35050565b80356001600160a01b03811681146106ca57600080fd5b919050565b6000602082840312156106e157600080fd5b6106ea826106b3565b9392505050565b60008060006060848603121561070657600080fd5b61070f846106b3565b925061071d602085016106b3565b9150604084013590509250925092565b60006020828403121561073f57600080fd5b815180151581146106ea57600080fd5b60006020828403121561076157600080fd5b5051919050565b6000821982111561078957634e487b7160e01b600052601160045260246000fd5b500190565b6000826107ab57634e487b7160e01b600052601260045260246000fd5b50049056fea264697066735822122097221975ad5975088665b0a7cc59e8bb48bfc1a597295ce98cc62e3ce1efb14264736f6c63430008060033",
  "linkReferences": {},
  "deployedLinkReferences": {}
}