{
  "_format": "hh-sol-artifact-1",
  "contractName": "LpToken",
  "sourceName": "contracts/LpToken.sol",
  "abi": [
    {
      "inputs": [
        {
          "internalType": "string",
          "name": "_name",
          "type": "string"
        },
        {
          "internalType": "string",
          "name": "_symbol",
          "type": "string"
        },
        {
          "internalType": "address",
          "name": "_poolAddress",
          "type": "address"
        },
        {
          "internalType": "address",
          "name": "_tokenAddress",
          "type": "address"
        }
      ],
      "stateMutability": "nonpayable",
      "type": "constructor"
    },
    {
      "anonymous": false,
      "inputs": [
        {
          "indexed": true,
          "internalType": "address",
          "name": "owner",
          "type": "address"
        },
        {
          "indexed": true,
          "internalType": "address",
          "name": "spender",
          "type": "address"
        },
        {
          "indexed": false,
          "internalType": "uint256",
          "name": "value",
          "type": "uint256"
        }
      ],
      "name": "Approval",
      "type": "event"
    },
    {
      "anonymous": false,
      "inputs": [
        {
          "indexed": true,
          "internalType": "address",
          "name": "previousOwner",
          "type": "address"
        },
        {
          "indexed": true,
          "internalType": "address",
          "name": "newOwner",
          "type": "address"
        }
      ],
      "name": "OwnershipTransferred",
      "type": "event"
    },
    {
      "anonymous": false,
      "inputs": [
        {
          "indexed": false,
          "internalType": "address",
          "name": "account",
          "type": "address"
        }
      ],
      "name": "Paused",
      "type": "event"
    },
    {
      "anonymous": false,
      "inputs": [
        {
          "indexed": true,
          "internalType": "bytes32",
          "name": "role",
          "type": "bytes32"
        },
        {
          "indexed": true,
          "internalType": "bytes32",
          "name": "previousAdminRole",
          "type": "bytes32"
        },
        {
          "indexed": true,
          "internalType": "bytes32",
          "name": "newAdminRole",
          "type": "bytes32"
        }
      ],
      "name": "RoleAdminChanged",
      "type": "event"
    },
    {
      "anonymous": false,
      "inputs": [
        {
          "indexed": true,
          "internalType": "bytes32",
          "name": "role",
          "type": "bytes32"
        },
        {
          "indexed": true,
          "internalType": "address",
          "name": "account",
          "type": "address"
        },
        {
          "indexed": true,
          "internalType": "address",
          "name": "sender",
          "type": "address"
        }
      ],
      "name": "RoleGranted",
      "type": "event"
    },
    {
      "anonymous": false,
      "inputs": [
        {
          "indexed": true,
          "internalType": "bytes32",
          "name": "role",
          "type": "bytes32"
        },
        {
          "indexed": true,
          "internalType": "address",
          "name": "account",
          "type": "address"
        },
        {
          "indexed": true,
          "internalType": "address",
          "name": "sender",
          "type": "address"
        }
      ],
      "name": "RoleRevoked",
      "type": "event"
    },
    {
      "anonymous": false,
      "inputs": [
        {
          "indexed": true,
          "internalType": "address",
          "name": "from",
          "type": "address"
        },
        {
          "indexed": true,
          "internalType": "address",
          "name": "to",
          "type": "address"
        },
        {
          "indexed": false,
          "internalType": "uint256",
          "name": "value",
          "type": "uint256"
        }
      ],
      "name": "Transfer",
      "type": "event"
    },
    {
      "anonymous": false,
      "inputs": [
        {
          "indexed": false,
          "internalType": "address",
          "name": "account",
          "type": "address"
        }
      ],
      "name": "Unpaused",
      "type": "event"
    },
    {
      "inputs": [],
      "name": "DEFAULT_ADMIN_ROLE",
      "outputs": [
        {
          "internalType": "bytes32",
          "name": "",
          "type": "bytes32"
        }
      ],
      "stateMutability": "view",
      "type": "function"
    },
    {
      "inputs": [],
      "name": "MINTER_ROLE",
      "outputs": [
        {
          "internalType": "bytes32",
          "name": "",
          "type": "bytes32"
        }
      ],
      "stateMutability": "view",
      "type": "function"
    },
    {
      "inputs": [],
      "name": "PAUSER_ROLE",
      "outputs": [
        {
          "internalType": "bytes32",
          "name": "",
          "type": "bytes32"
        }
      ],
      "stateMutability": "view",
      "type": "function"
    },
    {
      "inputs": [
        {
          "internalType": "address",
          "name": "owner",
          "type": "address"
        },
        {
          "internalType": "address",
          "name": "spender",
          "type": "address"
        }
      ],
      "name": "allowance",
      "outputs": [
        {
          "internalType": "uint256",
          "name": "",
          "type": "uint256"
        }
      ],
      "stateMutability": "view",
      "type": "function"
    },
    {
      "inputs": [
        {
          "internalType": "address",
          "name": "spender",
          "type": "address"
        },
        {
          "internalType": "uint256",
          "name": "amount",
          "type": "uint256"
        }
      ],
      "name": "approve",
      "outputs": [
        {
          "internalType": "bool",
          "name": "",
          "type": "bool"
        }
      ],
      "stateMutability": "nonpayable",
      "type": "function"
    },
    {
      "inputs": [
        {
          "internalType": "address",
          "name": "account",
          "type": "address"
        }
      ],
      "name": "balanceOf",
      "outputs": [
        {
          "internalType": "uint256",
          "name": "",
          "type": "uint256"
        }
      ],
      "stateMutability": "view",
      "type": "function"
    },
    {
      "inputs": [
        {
          "internalType": "uint256",
          "name": "amount",
          "type": "uint256"
        }
      ],
      "name": "burn",
      "outputs": [],
      "stateMutability": "nonpayable",
      "type": "function"
    },
    {
      "inputs": [
        {
          "internalType": "address",
          "name": "account",
          "type": "address"
        },
        {
          "internalType": "uint256",
          "name": "amount",
          "type": "uint256"
        }
      ],
      "name": "burnFrom",
      "outputs": [],
      "stateMutability": "nonpayable",
      "type": "function"
    },
    {
      "inputs": [],
      "name": "collectRewards",
      "outputs": [],
      "stateMutability": "nonpayable",
      "type": "function"
    },
    {
      "inputs": [],
      "name": "decimals",
      "outputs": [
        {
          "internalType": "uint8",
          "name": "",
          "type": "uint8"
        }
      ],
      "stateMutability": "view",
      "type": "function"
    },
    {
      "inputs": [
        {
          "internalType": "address",
          "name": "spender",
          "type": "address"
        },
        {
          "internalType": "uint256",
          "name": "subtractedValue",
          "type": "uint256"
        }
      ],
      "name": "decreaseAllowance",
      "outputs": [
        {
          "internalType": "bool",
          "name": "",
          "type": "bool"
        }
      ],
      "stateMutability": "nonpayable",
      "type": "function"
    },
    {
      "inputs": [
        {
          "internalType": "bytes32",
          "name": "role",
          "type": "bytes32"
        }
      ],
      "name": "getRoleAdmin",
      "outputs": [
        {
          "internalType": "bytes32",
          "name": "",
          "type": "bytes32"
        }
      ],
      "stateMutability": "view",
      "type": "function"
    },
    {
      "inputs": [
        {
          "internalType": "bytes32",
          "name": "role",
          "type": "bytes32"
        },
        {
          "internalType": "uint256",
          "name": "index",
          "type": "uint256"
        }
      ],
      "name": "getRoleMember",
      "outputs": [
        {
          "internalType": "address",
          "name": "",
          "type": "address"
        }
      ],
      "stateMutability": "view",
      "type": "function"
    },
    {
      "inputs": [
        {
          "internalType": "bytes32",
          "name": "role",
          "type": "bytes32"
        }
      ],
      "name": "getRoleMemberCount",
      "outputs": [
        {
          "internalType": "uint256",
          "name": "",
          "type": "uint256"
        }
      ],
      "stateMutability": "view",
      "type": "function"
    },
    {
      "inputs": [],
      "name": "grantPoolRole",
      "outputs": [],
      "stateMutability": "nonpayable",
      "type": "function"
    },
    {
      "inputs": [
        {
          "internalType": "bytes32",
          "name": "role",
          "type": "bytes32"
        },
        {
          "internalType": "address",
          "name": "account",
          "type": "address"
        }
      ],
      "name": "grantRole",
      "outputs": [],
      "stateMutability": "nonpayable",
      "type": "function"
    },
    {
      "inputs": [
        {
          "internalType": "bytes32",
          "name": "role",
          "type": "bytes32"
        },
        {
          "internalType": "address",
          "name": "account",
          "type": "address"
        }
      ],
      "name": "hasRole",
      "outputs": [
        {
          "internalType": "bool",
          "name": "",
          "type": "bool"
        }
      ],
      "stateMutability": "view",
      "type": "function"
    },
    {
      "inputs": [
        {
          "internalType": "address",
          "name": "spender",
          "type": "address"
        },
        {
          "internalType": "uint256",
          "name": "addedValue",
          "type": "uint256"
        }
      ],
      "name": "increaseAllowance",
      "outputs": [
        {
          "internalType": "bool",
          "name": "",
          "type": "bool"
        }
      ],
      "stateMutability": "nonpayable",
      "type": "function"
    },
    {
      "inputs": [
        {
          "internalType": "address",
          "name": "to",
          "type": "address"
        },
        {
          "internalType": "uint256",
          "name": "amount",
          "type": "uint256"
        }
      ],
      "name": "mint",
      "outputs": [],
      "stateMutability": "nonpayable",
      "type": "function"
    },
    {
      "inputs": [],
      "name": "name",
      "outputs": [
        {
          "internalType": "string",
          "name": "",
          "type": "string"
        }
      ],
      "stateMutability": "view",
      "type": "function"
    },
    {
      "inputs": [],
      "name": "owner",
      "outputs": [
        {
          "internalType": "address",
          "name": "",
          "type": "address"
        }
      ],
      "stateMutability": "view",
      "type": "function"
    },
    {
      "inputs": [],
      "name": "pause",
      "outputs": [],
      "stateMutability": "nonpayable",
      "type": "function"
    },
    {
      "inputs": [],
      "name": "paused",
      "outputs": [
        {
          "internalType": "bool",
          "name": "",
          "type": "bool"
        }
      ],
      "stateMutability": "view",
      "type": "function"
    },
    {
      "inputs": [],
      "name": "poolAddress",
      "outputs": [
        {
          "internalType": "address",
          "name": "",
          "type": "address"
        }
      ],
      "stateMutability": "view",
      "type": "function"
    },
    {
      "inputs": [],
      "name": "renounceOwnership",
      "outputs": [],
      "stateMutability": "nonpayable",
      "type": "function"
    },
    {
      "inputs": [
        {
          "internalType": "bytes32",
          "name": "role",
          "type": "bytes32"
        },
        {
          "internalType": "address",
          "name": "account",
          "type": "address"
        }
      ],
      "name": "renounceRole",
      "outputs": [],
      "stateMutability": "nonpayable",
      "type": "function"
    },
    {
      "inputs": [
        {
          "internalType": "bytes32",
          "name": "role",
          "type": "bytes32"
        },
        {
          "internalType": "address",
          "name": "account",
          "type": "address"
        }
      ],
      "name": "revokeRole",
      "outputs": [],
      "stateMutability": "nonpayable",
      "type": "function"
    },
    {
      "inputs": [
        {
          "internalType": "bytes4",
          "name": "interfaceId",
          "type": "bytes4"
        }
      ],
      "name": "supportsInterface",
      "outputs": [
        {
          "internalType": "bool",
          "name": "",
          "type": "bool"
        }
      ],
      "stateMutability": "view",
      "type": "function"
    },
    {
      "inputs": [],
      "name": "symbol",
      "outputs": [
        {
          "internalType": "string",
          "name": "",
          "type": "string"
        }
      ],
      "stateMutability": "view",
      "type": "function"
    },
    {
      "inputs": [],
      "name": "tokenAddress",
      "outputs": [
        {
          "internalType": "address",
          "name": "",
          "type": "address"
        }
      ],
      "stateMutability": "view",
      "type": "function"
    },
    {
      "inputs": [],
      "name": "totalSupply",
      "outputs": [
        {
          "internalType": "uint256",
          "name": "",
          "type": "uint256"
        }
      ],
      "stateMutability": "view",
      "type": "function"
    },
    {
      "inputs": [
        {
          "internalType": "address",
          "name": "recipient",
          "type": "address"
        },
        {
          "internalType": "uint256",
          "name": "amount",
          "type": "uint256"
        }
      ],
      "name": "transfer",
      "outputs": [
        {
          "internalType": "bool",
          "name": "",
          "type": "bool"
        }
      ],
      "stateMutability": "nonpayable",
      "type": "function"
    },
    {
      "inputs": [
        {
          "internalType": "address",
          "name": "sender",
          "type": "address"
        },
        {
          "internalType": "address",
          "name": "recipient",
          "type": "address"
        },
        {
          "internalType": "uint256",
          "name": "amount",
          "type": "uint256"
        }
      ],
      "name": "transferFrom",
      "outputs": [
        {
          "internalType": "bool",
          "name": "",
          "type": "bool"
        }
      ],
      "stateMutability": "nonpayable",
      "type": "function"
    },
    {
      "inputs": [
        {
          "internalType": "address",
          "name": "newOwner",
          "type": "address"
        }
      ],
      "name": "transferOwnership",
      "outputs": [],
      "stateMutability": "nonpayable",
      "type": "function"
    },
    {
      "inputs": [],
      "name": "unpause",
      "outputs": [],
      "stateMutability": "nonpayable",
      "type": "function"
    }
  ],
  "bytecode": "0x60806040526000600a556000600b553480156200001b57600080fd5b506040516200251e3803806200251e8339810160408190526200003e916200045e565b8383818181600590805190602001906200005a929190620002e4565b50805162000070906006906020840190620002e4565b50506007805460ff19169055506200008a60003362000125565b620000b67f9f2df0fed2c77648de5860a4cc508cd0818c85b8b8a1ab4ceeef8d981c8956a63362000125565b620000e27f65d7a28e3265b37a6474929f336521b332c1681b933f6cb9f3376673440d862a3362000125565b50620000f090503362000135565b600880546001600160a01b039384166001600160a01b0319918216179091556009805492909316911617905550620005409050565b6200013182826200018f565b5050565b600780546001600160a01b03838116610100818102610100600160a81b031985161790945560405193909204169182907f8be0079c531659141344cd1fd0a4f28419497f9722a3daafe3b4186f6b6457e090600090a35050565b620001a68282620001d260201b62000c5d1760201c565b6000828152600160209081526040909120620001cd91839062000ce162000272821b17901c565b505050565b6000828152602081815260408083206001600160a01b038516845290915290205460ff1662000131576000828152602081815260408083206001600160a01b03851684529091529020805460ff191660011790556200022e3390565b6001600160a01b0316816001600160a01b0316837f2f8788117e7eff1d82e926ec794901d17c78024a50270940304540a733656f0d60405160405180910390a45050565b600062000289836001600160a01b03841662000292565b90505b92915050565b6000818152600183016020526040812054620002db575081546001818101845560008481526020808220909301849055845484825282860190935260409020919091556200028c565b5060006200028c565b828054620002f290620004ed565b90600052602060002090601f01602090048101928262000316576000855562000361565b82601f106200033157805160ff191683800117855562000361565b8280016001018555821562000361579182015b828111156200036157825182559160200191906001019062000344565b506200036f92915062000373565b5090565b5b808211156200036f576000815560010162000374565b80516001600160a01b0381168114620003a257600080fd5b919050565b600082601f830112620003b957600080fd5b81516001600160401b0380821115620003d657620003d66200052a565b604051601f8301601f19908116603f011681019082821181831017156200040157620004016200052a565b816040528381526020925086838588010111156200041e57600080fd5b600091505b8382101562000442578582018301518183018401529082019062000423565b83821115620004545760008385830101525b9695505050505050565b600080600080608085870312156200047557600080fd5b84516001600160401b03808211156200048d57600080fd5b6200049b88838901620003a7565b95506020870151915080821115620004b257600080fd5b50620004c187828801620003a7565b935050620004d2604086016200038a565b9150620004e2606086016200038a565b905092959194509250565b600181811c908216806200050257607f821691505b602082108114156200052457634e487b7160e01b600052602260045260246000fd5b50919050565b634e487b7160e01b600052604160045260246000fd5b611fce80620005506000396000f3fe608060405234801561001057600080fd5b50600436106102115760003560e01c8063715018a611610125578063a457c2d7116100ad578063d53913931161007c578063d539139314610450578063d547741f14610477578063dd62ed3e1461048a578063e63ab1e9146104c3578063f2fde38b146104ea57600080fd5b8063a457c2d71461040f578063a9059cbb14610422578063b4834c6c14610435578063ca15c8731461043d57600080fd5b80639010d07c116100f45780639010d07c146103c657806391d14854146103d957806395d89b41146103ec5780639d76ea58146103f4578063a217fddf1461040757600080fd5b8063715018a61461038d57806379cc6790146103955780638456cb59146103a85780638da5cb5b146103b057600080fd5b8063313ce567116101a857806340c10f191161017757806340c10f191461032b57806342966c681461033e5780635c975abb1461035157806370a082311461035c57806370bb45b31461038557600080fd5b8063313ce567146102ee57806336568abe146102fd57806339509351146103105780633f4ba83a1461032357600080fd5b806318160ddd116101e457806318160ddd1461029157806323b872dd146102a3578063248a9ca3146102b65780632f2ff15d146102d957600080fd5b806301ffc9a71461021657806306fdde031461023e578063095ea7b3146102535780631755ff2114610266575b600080fd5b610229610224366004611c44565b6104fd565b60405190151581526020015b60405180910390f35b610246610528565b6040516102359190611cfc565b610229610261366004611b9a565b6105ba565b600854610279906001600160a01b031681565b6040516001600160a01b039091168152602001610235565b6004545b604051908152602001610235565b6102296102b1366004611b5e565b6105d0565b6102956102c4366004611be6565b60009081526020819052604090206001015490565b6102ec6102e7366004611bff565b61067f565b005b60405160128152602001610235565b6102ec61030b366004611bff565b6106aa565b61022961031e366004611b9a565b610728565b6102ec610764565b6102ec610339366004611b9a565b61080a565b6102ec61034c366004611be6565b6108a9565b60075460ff16610229565b61029561036a366004611b10565b6001600160a01b031660009081526002602052604090205490565b6102ec6108b6565b6102ec6108bf565b6102ec6103a3366004611b9a565b6108f9565b6102ec61097a565b60075461010090046001600160a01b0316610279565b6102796103d4366004611c22565b610a1e565b6102296103e7366004611bff565b610a3d565b610246610a66565b600954610279906001600160a01b031681565b610295600081565b61022961041d366004611b9a565b610a75565b610229610430366004611b9a565b610b0e565b6102ec610b1b565b61029561044b366004611be6565b610b82565b6102957f9f2df0fed2c77648de5860a4cc508cd0818c85b8b8a1ab4ceeef8d981c8956a681565b6102ec610485366004611bff565b610b99565b610295610498366004611b2b565b6001600160a01b03918216600090815260036020908152604080832093909416825291909152205490565b6102957f65d7a28e3265b37a6474929f336521b332c1681b933f6cb9f3376673440d862a81565b6102ec6104f8366004611b10565b610bbf565b60006001600160e01b03198216635a05180f60e01b1480610522575061052282610cf6565b92915050565b60606005805461053790611f05565b80601f016020809104026020016040519081016040528092919081815260200182805461056390611f05565b80156105b05780601f10610585576101008083540402835291602001916105b0565b820191906000526020600020905b81548152906001019060200180831161059357829003601f168201915b5050505050905090565b60006105c7338484610d2b565b50600192915050565b60006105dd848484610e4f565b6001600160a01b0384166000908152600360209081526040808320338452909152902054828110156106675760405162461bcd60e51b815260206004820152602860248201527f45524332303a207472616e7366657220616d6f756e74206578636565647320616044820152676c6c6f77616e636560c01b60648201526084015b60405180910390fd5b6106748533858403610d2b565b506001949350505050565b60008281526020819052604090206001015461069b813361102a565b6106a5838361108e565b505050565b6001600160a01b038116331461071a5760405162461bcd60e51b815260206004820152602f60248201527f416363657373436f6e74726f6c3a2063616e206f6e6c792072656e6f756e636560448201526e103937b632b9903337b91039b2b63360891b606482015260840161065e565b61072482826110b0565b5050565b3360008181526003602090815260408083206001600160a01b038716845290915281205490916105c791859061075f908690611d64565b610d2b565b61078e7f65d7a28e3265b37a6474929f336521b332c1681b933f6cb9f3376673440d862a33610a3d565b6108005760405162461bcd60e51b815260206004820152603960248201527f45524332305072657365744d696e7465725061757365723a206d75737420686160448201527f76652070617573657220726f6c6520746f20756e706175736500000000000000606482015260840161065e565b6108086110d2565b565b6108347f9f2df0fed2c77648de5860a4cc508cd0818c85b8b8a1ab4ceeef8d981c8956a633610a3d565b61089f5760405162461bcd60e51b815260206004820152603660248201527f45524332305072657365744d696e7465725061757365723a206d7573742068616044820152751d99481b5a5b9d195c881c9bdb19481d1bc81b5a5b9d60521b606482015260840161065e565b6107248282611165565b6108b33382611250565b50565b610808336113aa565b6007546001600160a01b036101009091041633146108ef5760405162461bcd60e51b815260040161065e90611d2f565b61080860006114ca565b60006109058333610498565b9050818110156109635760405162461bcd60e51b8152602060048201526024808201527f45524332303a206275726e20616d6f756e74206578636565647320616c6c6f77604482015263616e636560e01b606482015260840161065e565b6109708333848403610d2b565b6106a58383611250565b6109a47f65d7a28e3265b37a6474929f336521b332c1681b933f6cb9f3376673440d862a33610a3d565b610a165760405162461bcd60e51b815260206004820152603760248201527f45524332305072657365744d696e7465725061757365723a206d75737420686160448201527f76652070617573657220726f6c6520746f207061757365000000000000000000606482015260840161065e565b610808611524565b6000828152600160205260408120610a36908361159f565b9392505050565b6000918252602082815260408084206001600160a01b0393909316845291905290205460ff1690565b60606006805461053790611f05565b3360009081526003602090815260408083206001600160a01b038616845290915281205482811015610af75760405162461bcd60e51b815260206004820152602560248201527f45524332303a2064656372656173656420616c6c6f77616e63652062656c6f77604482015264207a65726f60d81b606482015260840161065e565b610b043385858403610d2b565b5060019392505050565b60006105c7338484610e4f565b6007546001600160a01b03610100909104163314610b4b5760405162461bcd60e51b815260040161065e90611d2f565b600854610808907f9f2df0fed2c77648de5860a4cc508cd0818c85b8b8a1ab4ceeef8d981c8956a6906001600160a01b031661067f565b6000818152600160205260408120610522906115ab565b600082815260208190526040902060010154610bb5813361102a565b6106a583836110b0565b6007546001600160a01b03610100909104163314610bef5760405162461bcd60e51b815260040161065e90611d2f565b6001600160a01b038116610c545760405162461bcd60e51b815260206004820152602660248201527f4f776e61626c653a206e6577206f776e657220697320746865207a65726f206160448201526564647265737360d01b606482015260840161065e565b6108b3816114ca565b610c678282610a3d565b610724576000828152602081815260408083206001600160a01b03851684529091529020805460ff19166001179055610c9d3390565b6001600160a01b0316816001600160a01b0316837f2f8788117e7eff1d82e926ec794901d17c78024a50270940304540a733656f0d60405160405180910390a45050565b6000610a36836001600160a01b0384166115b5565b60006001600160e01b03198216637965db0b60e01b148061052257506301ffc9a760e01b6001600160e01b0319831614610522565b6001600160a01b038316610d8d5760405162461bcd60e51b8152602060048201526024808201527f45524332303a20617070726f76652066726f6d20746865207a65726f206164646044820152637265737360e01b606482015260840161065e565b6001600160a01b038216610dee5760405162461bcd60e51b815260206004820152602260248201527f45524332303a20617070726f766520746f20746865207a65726f206164647265604482015261737360f01b606482015260840161065e565b6001600160a01b0383811660008181526003602090815260408083209487168084529482529182902085905590518481527f8c5be1e5ebec7d5bd14f71427d1e84f3dd0314c0f7b2291e5b200ac8c7c3b925910160405180910390a3505050565b6001600160a01b038316610eb35760405162461bcd60e51b815260206004820152602560248201527f45524332303a207472616e736665722066726f6d20746865207a65726f206164604482015264647265737360d81b606482015260840161065e565b6001600160a01b038216610f155760405162461bcd60e51b815260206004820152602360248201527f45524332303a207472616e7366657220746f20746865207a65726f206164647260448201526265737360e81b606482015260840161065e565b610f20838383611604565b6001600160a01b03831660009081526002602052604090205481811015610f985760405162461bcd60e51b815260206004820152602660248201527f45524332303a207472616e7366657220616d6f756e7420657863656564732062604482015265616c616e636560d01b606482015260840161065e565b6001600160a01b03808516600090815260026020526040808220858503905591851681529081208054849290610fcf908490611d64565b92505081905550826001600160a01b0316846001600160a01b03167fddf252ad1be2c89b69c2b068fc378daa952ba7f163c4a11628f55a4df523b3ef8460405161101b91815260200190565b60405180910390a35b50505050565b6110348282610a3d565b6107245761104c816001600160a01b0316601461166b565b61105783602061166b565b604051602001611068929190611c87565b60408051601f198184030181529082905262461bcd60e51b825261065e91600401611cfc565b6110988282610c5d565b60008281526001602052604090206106a59082610ce1565b6110ba8282611807565b60008281526001602052604090206106a5908261186c565b60075460ff1661111b5760405162461bcd60e51b815260206004820152601460248201527314185d5cd8589b194e881b9bdd081c185d5cd95960621b604482015260640161065e565b6007805460ff191690557f5db9ee0a495bf2e6ff9c91a7834c1ba4fdd244a5e8aa4e537bd38aeae4b073aa335b6040516001600160a01b03909116815260200160405180910390a1565b6001600160a01b0382166111bb5760405162461bcd60e51b815260206004820152601f60248201527f45524332303a206d696e7420746f20746865207a65726f206164647265737300604482015260640161065e565b6111c760008383611604565b80600460008282546111d99190611d64565b90915550506001600160a01b03821660009081526002602052604081208054839290611206908490611d64565b90915550506040518181526001600160a01b038316906000907fddf252ad1be2c89b69c2b068fc378daa952ba7f163c4a11628f55a4df523b3ef9060200160405180910390a35050565b6001600160a01b0382166112b05760405162461bcd60e51b815260206004820152602160248201527f45524332303a206275726e2066726f6d20746865207a65726f206164647265736044820152607360f81b606482015260840161065e565b6112bc82600083611604565b6001600160a01b038216600090815260026020526040902054818110156113305760405162461bcd60e51b815260206004820152602260248201527f45524332303a206275726e20616d6f756e7420657863656564732062616c616e604482015261636560f01b606482015260840161065e565b6001600160a01b038316600090815260026020526040812083830390556004805484929061135f908490611eab565b90915550506040518281526000906001600160a01b038516907fddf252ad1be2c89b69c2b068fc378daa952ba7f163c4a11628f55a4df523b3ef9060200160405180910390a3505050565b6113ba6113b5611881565b611930565b60006113c86012600a611de1565b6001600160a01b038316600090815260026020908152604080832054600c90925290912054600a546113fa9190611eab565b6114049190611e8c565b61140e9190611d7c565b600a546001600160a01b038481166000818152600c60205260409081902093909355600954925163a9059cbb60e01b8152600481019190915260248101849052929350169063a9059cbb90604401602060405180830381600087803b15801561147657600080fd5b505af115801561148a573d6000803e3d6000fd5b505050506040513d601f19601f820116820180604052508101906114ae9190611bc4565b5080600b60008282546114c19190611eab565b90915550505050565b600780546001600160a01b03838116610100818102610100600160a81b031985161790945560405193909204169182907f8be0079c531659141344cd1fd0a4f28419497f9722a3daafe3b4186f6b6457e090600090a35050565b60075460ff161561156a5760405162461bcd60e51b815260206004820152601060248201526f14185d5cd8589b194e881c185d5cd95960821b604482015260640161065e565b6007805460ff191660011790557f62e78cea01bee320cd4e420270b5ea74000d11b0c9f74754ebdbfc544b05a2586111483390565b6000610a368383611966565b6000610522825490565b60008181526001830160205260408120546115fc57508154600181810184556000848152602080822090930184905584548482528286019093526040902091909155610522565b506000610522565b61160f838383611990565b6001600160a01b0382161580159061162f5750600061162d60045490565b115b1561163d5761163d826113aa565b6001600160a01b0383161580159061165d5750600061165b60045490565b115b156106a5576106a5836113aa565b6060600061167a836002611e8c565b611685906002611d64565b67ffffffffffffffff81111561169d5761169d611f82565b6040519080825280601f01601f1916602001820160405280156116c7576020820181803683370190505b509050600360fc1b816000815181106116e2576116e2611f6c565b60200101906001600160f81b031916908160001a905350600f60fb1b8160018151811061171157611711611f6c565b60200101906001600160f81b031916908160001a9053506000611735846002611e8c565b611740906001611d64565b90505b60018111156117b8576f181899199a1a9b1b9c1cb0b131b232b360811b85600f166010811061177457611774611f6c565b1a60f81b82828151811061178a5761178a611f6c565b60200101906001600160f81b031916908160001a90535060049490941c936117b181611eee565b9050611743565b508315610a365760405162461bcd60e51b815260206004820181905260248201527f537472696e67733a20686578206c656e67746820696e73756666696369656e74604482015260640161065e565b6118118282610a3d565b15610724576000828152602081815260408083206001600160a01b0385168085529252808320805460ff1916905551339285917ff6391f5c32d9c69d2a47ea670b442974b53935d1edc7fd64eb21e047a839171b9190a45050565b6000610a36836001600160a01b03841661199b565b6009546040516370a0823160e01b815230600482015260009182916001600160a01b03909116906370a082319060240160206040518083038186803b1580156118c957600080fd5b505afa1580156118dd573d6000803e3d6000fd5b505050506040513d601f19601f820116820180604052508101906119019190611c6e565b905080600b5414611928576000600b548261191c9190611eab565b600b9290925550919050565b600091505090565b60045461193f6012600a611de1565b6119499083611e8c565b6119539190611d7c565b600a546119609190611d64565b600a5550565b600082600001828154811061197d5761197d611f6c565b9060005260206000200154905092915050565b6106a5838383611a8e565b60008181526001830160205260408120548015611a845760006119bf600183611eab565b85549091506000906119d390600190611eab565b9050818114611a385760008660000182815481106119f3576119f3611f6c565b9060005260206000200154905080876000018481548110611a1657611a16611f6c565b6000918252602080832090910192909255918252600188019052604090208390555b8554869080611a4957611a49611f56565b600190038181906000526020600020016000905590558560010160008681526020019081526020016000206000905560019350505050610522565b6000915050610522565b60075460ff16156106a55760405162461bcd60e51b815260206004820152602a60248201527f45524332305061757361626c653a20746f6b656e207472616e736665722077686044820152691a5b19481c185d5cd95960b21b606482015260840161065e565b80356001600160a01b0381168114611b0b57600080fd5b919050565b600060208284031215611b2257600080fd5b610a3682611af4565b60008060408385031215611b3e57600080fd5b611b4783611af4565b9150611b5560208401611af4565b90509250929050565b600080600060608486031215611b7357600080fd5b611b7c84611af4565b9250611b8a60208501611af4565b9150604084013590509250925092565b60008060408385031215611bad57600080fd5b611bb683611af4565b946020939093013593505050565b600060208284031215611bd657600080fd5b81518015158114610a3657600080fd5b600060208284031215611bf857600080fd5b5035919050565b60008060408385031215611c1257600080fd5b82359150611b5560208401611af4565b60008060408385031215611c3557600080fd5b50508035926020909101359150565b600060208284031215611c5657600080fd5b81356001600160e01b031981168114610a3657600080fd5b600060208284031215611c8057600080fd5b5051919050565b7f416363657373436f6e74726f6c3a206163636f756e7420000000000000000000815260008351611cbf816017850160208801611ec2565b7001034b99036b4b9b9b4b733903937b6329607d1b6017918401918201528351611cf0816028840160208801611ec2565b01602801949350505050565b6020815260008251806020840152611d1b816040850160208701611ec2565b601f01601f19169190910160400192915050565b6020808252818101527f4f776e61626c653a2063616c6c6572206973206e6f7420746865206f776e6572604082015260600190565b60008219821115611d7757611d77611f40565b500190565b600082611d9957634e487b7160e01b600052601260045260246000fd5b500490565b600181815b80851115611dd9578160001904821115611dbf57611dbf611f40565b80851615611dcc57918102915b93841c9390800290611da3565b509250929050565b6000610a3660ff841683600082611dfa57506001610522565b81611e0757506000610522565b8160018114611e1d5760028114611e2757611e43565b6001915050610522565b60ff841115611e3857611e38611f40565b50506001821b610522565b5060208310610133831016604e8410600b8410161715611e66575081810a610522565b611e708383611d9e565b8060001904821115611e8457611e84611f40565b029392505050565b6000816000190483118215151615611ea657611ea6611f40565b500290565b600082821015611ebd57611ebd611f40565b500390565b60005b83811015611edd578181015183820152602001611ec5565b838111156110245750506000910152565b600081611efd57611efd611f40565b506000190190565b600181811c90821680611f1957607f821691505b60208210811415611f3a57634e487b7160e01b600052602260045260246000fd5b50919050565b634e487b7160e01b600052601160045260246000fd5b634e487b7160e01b600052603160045260246000fd5b634e487b7160e01b600052603260045260246000fd5b634e487b7160e01b600052604160045260246000fdfea264697066735822122029899005f75b703e916e2ba765ea142afc2e9008ce2e66e1dba54282f9f155d364736f6c63430008060033",
  "linkReferences": {},
  "deployedLinkReferences": {}
}