{
  "_format": "hh-sol-artifact-1",
  "contractName": "MyToken",
  "sourceName": "contracts/MyToken.sol",
  "abi": [
    {
      "inputs": [
        {
          "internalType": "string",
          "name": "_name",
          "type": "string"
        },
        {
          "internalType": "string",
          "name": "_symbol",
          "type": "string"
        }
      ],
      "stateMutability": "nonpayable",
      "type": "constructor"
    },
    {
      "anonymous": false,
      "inputs": [
        {
          "indexed": true,
          "internalType": "address",
          "name": "owner",
          "type": "address"
        },
        {
          "indexed": true,
          "internalType": "address",
          "name": "spender",
          "type": "address"
        },
        {
          "indexed": false,
          "internalType": "uint256",
          "name": "value",
          "type": "uint256"
        }
      ],
      "name": "Approval",
      "type": "event"
    },
    {
      "anonymous": false,
      "inputs": [
        {
          "indexed": false,
          "internalType": "address",
          "name": "account",
          "type": "address"
        }
      ],
      "name": "Paused",
      "type": "event"
    },
    {
      "anonymous": false,
      "inputs": [
        {
          "indexed": true,
          "internalType": "bytes32",
          "name": "role",
          "type": "bytes32"
        },
        {
          "indexed": true,
          "internalType": "bytes32",
          "name": "previousAdminRole",
          "type": "bytes32"
        },
        {
          "indexed": true,
          "internalType": "bytes32",
          "name": "newAdminRole",
          "type": "bytes32"
        }
      ],
      "name": "RoleAdminChanged",
      "type": "event"
    },
    {
      "anonymous": false,
      "inputs": [
        {
          "indexed": true,
          "internalType": "bytes32",
          "name": "role",
          "type": "bytes32"
        },
        {
          "indexed": true,
          "internalType": "address",
          "name": "account",
          "type": "address"
        },
        {
          "indexed": true,
          "internalType": "address",
          "name": "sender",
          "type": "address"
        }
      ],
      "name": "RoleGranted",
      "type": "event"
    },
    {
      "anonymous": false,
      "inputs": [
        {
          "indexed": true,
          "internalType": "bytes32",
          "name": "role",
          "type": "bytes32"
        },
        {
          "indexed": true,
          "internalType": "address",
          "name": "account",
          "type": "address"
        },
        {
          "indexed": true,
          "internalType": "address",
          "name": "sender",
          "type": "address"
        }
      ],
      "name": "RoleRevoked",
      "type": "event"
    },
    {
      "anonymous": false,
      "inputs": [
        {
          "indexed": true,
          "internalType": "address",
          "name": "from",
          "type": "address"
        },
        {
          "indexed": true,
          "internalType": "address",
          "name": "to",
          "type": "address"
        },
        {
          "indexed": false,
          "internalType": "uint256",
          "name": "value",
          "type": "uint256"
        }
      ],
      "name": "Transfer",
      "type": "event"
    },
    {
      "anonymous": false,
      "inputs": [
        {
          "indexed": false,
          "internalType": "address",
          "name": "account",
          "type": "address"
        }
      ],
      "name": "Unpaused",
      "type": "event"
    },
    {
      "inputs": [],
      "name": "DEFAULT_ADMIN_ROLE",
      "outputs": [
        {
          "internalType": "bytes32",
          "name": "",
          "type": "bytes32"
        }
      ],
      "stateMutability": "view",
      "type": "function"
    },
    {
      "inputs": [],
      "name": "MINTER_ROLE",
      "outputs": [
        {
          "internalType": "bytes32",
          "name": "",
          "type": "bytes32"
        }
      ],
      "stateMutability": "view",
      "type": "function"
    },
    {
      "inputs": [],
      "name": "PAUSER_ROLE",
      "outputs": [
        {
          "internalType": "bytes32",
          "name": "",
          "type": "bytes32"
        }
      ],
      "stateMutability": "view",
      "type": "function"
    },
    {
      "inputs": [],
      "name": "addTokens",
      "outputs": [],
      "stateMutability": "nonpayable",
      "type": "function"
    },
    {
      "inputs": [
        {
          "internalType": "address",
          "name": "owner",
          "type": "address"
        },
        {
          "internalType": "address",
          "name": "spender",
          "type": "address"
        }
      ],
      "name": "allowance",
      "outputs": [
        {
          "internalType": "uint256",
          "name": "",
          "type": "uint256"
        }
      ],
      "stateMutability": "view",
      "type": "function"
    },
    {
      "inputs": [
        {
          "internalType": "address",
          "name": "spender",
          "type": "address"
        },
        {
          "internalType": "uint256",
          "name": "amount",
          "type": "uint256"
        }
      ],
      "name": "approve",
      "outputs": [
        {
          "internalType": "bool",
          "name": "",
          "type": "bool"
        }
      ],
      "stateMutability": "nonpayable",
      "type": "function"
    },
    {
      "inputs": [
        {
          "internalType": "address",
          "name": "account",
          "type": "address"
        }
      ],
      "name": "balanceOf",
      "outputs": [
        {
          "internalType": "uint256",
          "name": "",
          "type": "uint256"
        }
      ],
      "stateMutability": "view",
      "type": "function"
    },
    {
      "inputs": [
        {
          "internalType": "uint256",
          "name": "amount",
          "type": "uint256"
        }
      ],
      "name": "burn",
      "outputs": [],
      "stateMutability": "nonpayable",
      "type": "function"
    },
    {
      "inputs": [
        {
          "internalType": "address",
          "name": "account",
          "type": "address"
        },
        {
          "internalType": "uint256",
          "name": "amount",
          "type": "uint256"
        }
      ],
      "name": "burnFrom",
      "outputs": [],
      "stateMutability": "nonpayable",
      "type": "function"
    },
    {
      "inputs": [],
      "name": "decimals",
      "outputs": [
        {
          "internalType": "uint8",
          "name": "",
          "type": "uint8"
        }
      ],
      "stateMutability": "view",
      "type": "function"
    },
    {
      "inputs": [
        {
          "internalType": "address",
          "name": "spender",
          "type": "address"
        },
        {
          "internalType": "uint256",
          "name": "subtractedValue",
          "type": "uint256"
        }
      ],
      "name": "decreaseAllowance",
      "outputs": [
        {
          "internalType": "bool",
          "name": "",
          "type": "bool"
        }
      ],
      "stateMutability": "nonpayable",
      "type": "function"
    },
    {
      "inputs": [
        {
          "internalType": "bytes32",
          "name": "role",
          "type": "bytes32"
        }
      ],
      "name": "getRoleAdmin",
      "outputs": [
        {
          "internalType": "bytes32",
          "name": "",
          "type": "bytes32"
        }
      ],
      "stateMutability": "view",
      "type": "function"
    },
    {
      "inputs": [
        {
          "internalType": "bytes32",
          "name": "role",
          "type": "bytes32"
        },
        {
          "internalType": "uint256",
          "name": "index",
          "type": "uint256"
        }
      ],
      "name": "getRoleMember",
      "outputs": [
        {
          "internalType": "address",
          "name": "",
          "type": "address"
        }
      ],
      "stateMutability": "view",
      "type": "function"
    },
    {
      "inputs": [
        {
          "internalType": "bytes32",
          "name": "role",
          "type": "bytes32"
        }
      ],
      "name": "getRoleMemberCount",
      "outputs": [
        {
          "internalType": "uint256",
          "name": "",
          "type": "uint256"
        }
      ],
      "stateMutability": "view",
      "type": "function"
    },
    {
      "inputs": [
        {
          "internalType": "bytes32",
          "name": "role",
          "type": "bytes32"
        },
        {
          "internalType": "address",
          "name": "account",
          "type": "address"
        }
      ],
      "name": "grantRole",
      "outputs": [],
      "stateMutability": "nonpayable",
      "type": "function"
    },
    {
      "inputs": [
        {
          "internalType": "bytes32",
          "name": "role",
          "type": "bytes32"
        },
        {
          "internalType": "address",
          "name": "account",
          "type": "address"
        }
      ],
      "name": "hasRole",
      "outputs": [
        {
          "internalType": "bool",
          "name": "",
          "type": "bool"
        }
      ],
      "stateMutability": "view",
      "type": "function"
    },
    {
      "inputs": [
        {
          "internalType": "address",
          "name": "spender",
          "type": "address"
        },
        {
          "internalType": "uint256",
          "name": "addedValue",
          "type": "uint256"
        }
      ],
      "name": "increaseAllowance",
      "outputs": [
        {
          "internalType": "bool",
          "name": "",
          "type": "bool"
        }
      ],
      "stateMutability": "nonpayable",
      "type": "function"
    },
    {
      "inputs": [
        {
          "internalType": "address",
          "name": "to",
          "type": "address"
        },
        {
          "internalType": "uint256",
          "name": "amount",
          "type": "uint256"
        }
      ],
      "name": "mint",
      "outputs": [],
      "stateMutability": "nonpayable",
      "type": "function"
    },
    {
      "inputs": [],
      "name": "name",
      "outputs": [
        {
          "internalType": "string",
          "name": "",
          "type": "string"
        }
      ],
      "stateMutability": "view",
      "type": "function"
    },
    {
      "inputs": [],
      "name": "pause",
      "outputs": [],
      "stateMutability": "nonpayable",
      "type": "function"
    },
    {
      "inputs": [],
      "name": "paused",
      "outputs": [
        {
          "internalType": "bool",
          "name": "",
          "type": "bool"
        }
      ],
      "stateMutability": "view",
      "type": "function"
    },
    {
      "inputs": [
        {
          "internalType": "bytes32",
          "name": "role",
          "type": "bytes32"
        },
        {
          "internalType": "address",
          "name": "account",
          "type": "address"
        }
      ],
      "name": "renounceRole",
      "outputs": [],
      "stateMutability": "nonpayable",
      "type": "function"
    },
    {
      "inputs": [
        {
          "internalType": "bytes32",
          "name": "role",
          "type": "bytes32"
        },
        {
          "internalType": "address",
          "name": "account",
          "type": "address"
        }
      ],
      "name": "revokeRole",
      "outputs": [],
      "stateMutability": "nonpayable",
      "type": "function"
    },
    {
      "inputs": [
        {
          "internalType": "bytes4",
          "name": "interfaceId",
          "type": "bytes4"
        }
      ],
      "name": "supportsInterface",
      "outputs": [
        {
          "internalType": "bool",
          "name": "",
          "type": "bool"
        }
      ],
      "stateMutability": "view",
      "type": "function"
    },
    {
      "inputs": [],
      "name": "symbol",
      "outputs": [
        {
          "internalType": "string",
          "name": "",
          "type": "string"
        }
      ],
      "stateMutability": "view",
      "type": "function"
    },
    {
      "inputs": [],
      "name": "totalSupply",
      "outputs": [
        {
          "internalType": "uint256",
          "name": "",
          "type": "uint256"
        }
      ],
      "stateMutability": "view",
      "type": "function"
    },
    {
      "inputs": [
        {
          "internalType": "address",
          "name": "recipient",
          "type": "address"
        },
        {
          "internalType": "uint256",
          "name": "amount",
          "type": "uint256"
        }
      ],
      "name": "transfer",
      "outputs": [
        {
          "internalType": "bool",
          "name": "",
          "type": "bool"
        }
      ],
      "stateMutability": "nonpayable",
      "type": "function"
    },
    {
      "inputs": [
        {
          "internalType": "address",
          "name": "sender",
          "type": "address"
        },
        {
          "internalType": "address",
          "name": "recipient",
          "type": "address"
        },
        {
          "internalType": "uint256",
          "name": "amount",
          "type": "uint256"
        }
      ],
      "name": "transferFrom",
      "outputs": [
        {
          "internalType": "bool",
          "name": "",
          "type": "bool"
        }
      ],
      "stateMutability": "nonpayable",
      "type": "function"
    },
    {
      "inputs": [],
      "name": "unpause",
      "outputs": [],
      "stateMutability": "nonpayable",
      "type": "function"
    }
  ],
  "bytecode": "0x60806040523480156200001157600080fd5b5060405162001e2338038062001e238339810160408190526200003491620003a4565b8181818181600590805190602001906200005092919062000247565b5080516200006690600690602084019062000247565b50506007805460ff191690555062000080600033620000e2565b620000ac7f9f2df0fed2c77648de5860a4cc508cd0818c85b8b8a1ab4ceeef8d981c8956a633620000e2565b620000d87f65d7a28e3265b37a6474929f336521b332c1681b933f6cb9f3376673440d862a33620000e2565b5050505062000461565b620000ee8282620000f2565b5050565b6200010982826200013560201b62000a871760201c565b60008281526001602090815260409091206200013091839062000b0b620001d5821b17901c565b505050565b6000828152602081815260408083206001600160a01b038516845290915290205460ff16620000ee576000828152602081815260408083206001600160a01b03851684529091529020805460ff19166001179055620001913390565b6001600160a01b0316816001600160a01b0316837f2f8788117e7eff1d82e926ec794901d17c78024a50270940304540a733656f0d60405160405180910390a45050565b6000620001ec836001600160a01b038416620001f5565b90505b92915050565b60008181526001830160205260408120546200023e57508154600181810184556000848152602080822090930184905584548482528286019093526040902091909155620001ef565b506000620001ef565b82805462000255906200040e565b90600052602060002090601f016020900481019282620002795760008555620002c4565b82601f106200029457805160ff1916838001178555620002c4565b82800160010185558215620002c4579182015b82811115620002c4578251825591602001919060010190620002a7565b50620002d2929150620002d6565b5090565b5b80821115620002d25760008155600101620002d7565b600082601f830112620002ff57600080fd5b81516001600160401b03808211156200031c576200031c6200044b565b604051601f8301601f19908116603f011681019082821181831017156200034757620003476200044b565b816040528381526020925086838588010111156200036457600080fd5b600091505b8382101562000388578582018301518183018401529082019062000369565b838211156200039a5760008385830101525b9695505050505050565b60008060408385031215620003b857600080fd5b82516001600160401b0380821115620003d057600080fd5b620003de86838701620002ed565b93506020850151915080821115620003f557600080fd5b506200040485828601620002ed565b9150509250929050565b600181811c908216806200042357607f821691505b602082108114156200044557634e487b7160e01b600052602260045260246000fd5b50919050565b634e487b7160e01b600052604160045260246000fd5b6119b280620004716000396000f3fe608060405234801561001057600080fd5b50600436106101cf5760003560e01c806370a0823111610104578063a457c2d7116100a2578063d547741f11610071578063d547741f146103e1578063d5f4f0b3146103f4578063dd62ed3e146103fc578063e63ab1e91461043557600080fd5b8063a457c2d714610381578063a9059cbb14610394578063ca15c873146103a7578063d5391393146103ba57600080fd5b80639010d07c116100de5780639010d07c1461033357806391d148541461035e57806395d89b4114610371578063a217fddf1461037957600080fd5b806370a08231146102ef57806379cc6790146103185780638456cb591461032b57600080fd5b8063313ce567116101715780633f4ba83a1161014b5780633f4ba83a146102b657806340c10f19146102be57806342966c68146102d15780635c975abb146102e457600080fd5b8063313ce5671461028157806336568abe1461029057806339509351146102a357600080fd5b806318160ddd116101ad57806318160ddd1461022457806323b872dd14610236578063248a9ca3146102495780632f2ff15d1461026c57600080fd5b806301ffc9a7146101d457806306fdde03146101fc578063095ea7b314610211575b600080fd5b6101e76101e2366004611786565b61045c565b60405190151581526020015b60405180910390f35b610204610487565b6040516101f39190611825565b6101e761021f3660046116fe565b610519565b6004545b6040519081526020016101f3565b6101e76102443660046116c2565b61052f565b610228610257366004611728565b60009081526020819052604090206001015490565b61027f61027a366004611741565b6105de565b005b604051601281526020016101f3565b61027f61029e366004611741565b610609565b6101e76102b13660046116fe565b610687565b61027f6106c3565b61027f6102cc3660046116fe565b610769565b61027f6102df366004611728565b610808565b60075460ff166101e7565b6102286102fd366004611674565b6001600160a01b031660009081526002602052604090205490565b61027f6103263660046116fe565b610815565b61027f610896565b610346610341366004611764565b61093a565b6040516001600160a01b0390911681526020016101f3565b6101e761036c366004611741565b610959565b610204610982565b610228600081565b6101e761038f3660046116fe565b610991565b6101e76103a23660046116fe565b610a2a565b6102286103b5366004611728565b610a37565b6102287f9f2df0fed2c77648de5860a4cc508cd0818c85b8b8a1ab4ceeef8d981c8956a681565b61027f6103ef366004611741565b610a4e565b61027f610a74565b61022861040a36600461168f565b6001600160a01b03918216600090815260036020908152604080832093909416825291909152205490565b6102287f65d7a28e3265b37a6474929f336521b332c1681b933f6cb9f3376673440d862a81565b60006001600160e01b03198216635a05180f60e01b1480610481575061048182610b20565b92915050565b606060058054610496906118e9565b80601f01602080910402602001604051908101604052809291908181526020018280546104c2906118e9565b801561050f5780601f106104e45761010080835404028352916020019161050f565b820191906000526020600020905b8154815290600101906020018083116104f257829003601f168201915b5050505050905090565b6000610526338484610b55565b50600192915050565b600061053c848484610c79565b6001600160a01b0384166000908152600360209081526040808320338452909152902054828110156105c65760405162461bcd60e51b815260206004820152602860248201527f45524332303a207472616e7366657220616d6f756e74206578636565647320616044820152676c6c6f77616e636560c01b60648201526084015b60405180910390fd5b6105d38533858403610b55565b506001949350505050565b6000828152602081905260409020600101546105fa8133610e54565b6106048383610eb8565b505050565b6001600160a01b03811633146106795760405162461bcd60e51b815260206004820152602f60248201527f416363657373436f6e74726f6c3a2063616e206f6e6c792072656e6f756e636560448201526e103937b632b9903337b91039b2b63360891b60648201526084016105bd565b6106838282610eda565b5050565b3360008181526003602090815260408083206001600160a01b038716845290915281205490916105269185906106be908690611858565b610b55565b6106ed7f65d7a28e3265b37a6474929f336521b332c1681b933f6cb9f3376673440d862a33610959565b61075f5760405162461bcd60e51b815260206004820152603960248201527f45524332305072657365744d696e7465725061757365723a206d75737420686160448201527f76652070617573657220726f6c6520746f20756e70617573650000000000000060648201526084016105bd565b610767610efc565b565b6107937f9f2df0fed2c77648de5860a4cc508cd0818c85b8b8a1ab4ceeef8d981c8956a633610959565b6107fe5760405162461bcd60e51b815260206004820152603660248201527f45524332305072657365744d696e7465725061757365723a206d7573742068616044820152751d99481b5a5b9d195c881c9bdb19481d1bc81b5a5b9d60521b60648201526084016105bd565b6106838282610f8f565b610812338261107a565b50565b6000610821833361040a565b90508181101561087f5760405162461bcd60e51b8152602060048201526024808201527f45524332303a206275726e20616d6f756e74206578636565647320616c6c6f77604482015263616e636560e01b60648201526084016105bd565b61088c8333848403610b55565b610604838361107a565b6108c07f65d7a28e3265b37a6474929f336521b332c1681b933f6cb9f3376673440d862a33610959565b6109325760405162461bcd60e51b815260206004820152603760248201527f45524332305072657365744d696e7465725061757365723a206d75737420686160448201527f76652070617573657220726f6c6520746f20706175736500000000000000000060648201526084016105bd565b6107676111d4565b6000828152600160205260408120610952908361124f565b9392505050565b6000918252602082815260408084206001600160a01b0393909316845291905290205460ff1690565b606060068054610496906118e9565b3360009081526003602090815260408083206001600160a01b038616845290915281205482811015610a135760405162461bcd60e51b815260206004820152602560248201527f45524332303a2064656372656173656420616c6c6f77616e63652062656c6f77604482015264207a65726f60d81b60648201526084016105bd565b610a203385858403610b55565b5060019392505050565b6000610526338484610c79565b60008181526001602052604081206104819061125b565b600082815260208190526040902060010154610a6a8133610e54565b6106048383610eda565b6107673368056bc75e2d63100000610f8f565b610a918282610959565b610683576000828152602081815260408083206001600160a01b03851684529091529020805460ff19166001179055610ac73390565b6001600160a01b0316816001600160a01b0316837f2f8788117e7eff1d82e926ec794901d17c78024a50270940304540a733656f0d60405160405180910390a45050565b6000610952836001600160a01b038416611265565b60006001600160e01b03198216637965db0b60e01b148061048157506301ffc9a760e01b6001600160e01b0319831614610481565b6001600160a01b038316610bb75760405162461bcd60e51b8152602060048201526024808201527f45524332303a20617070726f76652066726f6d20746865207a65726f206164646044820152637265737360e01b60648201526084016105bd565b6001600160a01b038216610c185760405162461bcd60e51b815260206004820152602260248201527f45524332303a20617070726f766520746f20746865207a65726f206164647265604482015261737360f01b60648201526084016105bd565b6001600160a01b0383811660008181526003602090815260408083209487168084529482529182902085905590518481527f8c5be1e5ebec7d5bd14f71427d1e84f3dd0314c0f7b2291e5b200ac8c7c3b925910160405180910390a3505050565b6001600160a01b038316610cdd5760405162461bcd60e51b815260206004820152602560248201527f45524332303a207472616e736665722066726f6d20746865207a65726f206164604482015264647265737360d81b60648201526084016105bd565b6001600160a01b038216610d3f5760405162461bcd60e51b815260206004820152602360248201527f45524332303a207472616e7366657220746f20746865207a65726f206164647260448201526265737360e81b60648201526084016105bd565b610d4a8383836112b4565b6001600160a01b03831660009081526002602052604090205481811015610dc25760405162461bcd60e51b815260206004820152602660248201527f45524332303a207472616e7366657220616d6f756e7420657863656564732062604482015265616c616e636560d01b60648201526084016105bd565b6001600160a01b03808516600090815260026020526040808220858503905591851681529081208054849290610df9908490611858565b92505081905550826001600160a01b0316846001600160a01b03167fddf252ad1be2c89b69c2b068fc378daa952ba7f163c4a11628f55a4df523b3ef84604051610e4591815260200190565b60405180910390a35b50505050565b610e5e8282610959565b61068357610e76816001600160a01b031660146112bf565b610e818360206112bf565b604051602001610e929291906117b0565b60408051601f198184030181529082905262461bcd60e51b82526105bd91600401611825565b610ec28282610a87565b60008281526001602052604090206106049082610b0b565b610ee4828261145b565b600082815260016020526040902061060490826114c0565b60075460ff16610f455760405162461bcd60e51b815260206004820152601460248201527314185d5cd8589b194e881b9bdd081c185d5cd95960621b60448201526064016105bd565b6007805460ff191690557f5db9ee0a495bf2e6ff9c91a7834c1ba4fdd244a5e8aa4e537bd38aeae4b073aa335b6040516001600160a01b03909116815260200160405180910390a1565b6001600160a01b038216610fe55760405162461bcd60e51b815260206004820152601f60248201527f45524332303a206d696e7420746f20746865207a65726f20616464726573730060448201526064016105bd565b610ff1600083836112b4565b80600460008282546110039190611858565b90915550506001600160a01b03821660009081526002602052604081208054839290611030908490611858565b90915550506040518181526001600160a01b038316906000907fddf252ad1be2c89b69c2b068fc378daa952ba7f163c4a11628f55a4df523b3ef9060200160405180910390a35050565b6001600160a01b0382166110da5760405162461bcd60e51b815260206004820152602160248201527f45524332303a206275726e2066726f6d20746865207a65726f206164647265736044820152607360f81b60648201526084016105bd565b6110e6826000836112b4565b6001600160a01b0382166000908152600260205260409020548181101561115a5760405162461bcd60e51b815260206004820152602260248201527f45524332303a206275726e20616d6f756e7420657863656564732062616c616e604482015261636560f01b60648201526084016105bd565b6001600160a01b038316600090815260026020526040812083830390556004805484929061118990849061188f565b90915550506040518281526000906001600160a01b038516907fddf252ad1be2c89b69c2b068fc378daa952ba7f163c4a11628f55a4df523b3ef9060200160405180910390a3505050565b60075460ff161561121a5760405162461bcd60e51b815260206004820152601060248201526f14185d5cd8589b194e881c185d5cd95960821b60448201526064016105bd565b6007805460ff191660011790557f62e78cea01bee320cd4e420270b5ea74000d11b0c9f74754ebdbfc544b05a258610f723390565b600061095283836114d5565b6000610481825490565b60008181526001830160205260408120546112ac57508154600181810184556000848152602080822090930184905584548482528286019093526040902091909155610481565b506000610481565b6106048383836114ff565b606060006112ce836002611870565b6112d9906002611858565b67ffffffffffffffff8111156112f1576112f1611966565b6040519080825280601f01601f19166020018201604052801561131b576020820181803683370190505b509050600360fc1b8160008151811061133657611336611950565b60200101906001600160f81b031916908160001a905350600f60fb1b8160018151811061136557611365611950565b60200101906001600160f81b031916908160001a9053506000611389846002611870565b611394906001611858565b90505b600181111561140c576f181899199a1a9b1b9c1cb0b131b232b360811b85600f16601081106113c8576113c8611950565b1a60f81b8282815181106113de576113de611950565b60200101906001600160f81b031916908160001a90535060049490941c93611405816118d2565b9050611397565b5083156109525760405162461bcd60e51b815260206004820181905260248201527f537472696e67733a20686578206c656e67746820696e73756666696369656e7460448201526064016105bd565b6114658282610959565b15610683576000828152602081815260408083206001600160a01b0385168085529252808320805460ff1916905551339285917ff6391f5c32d9c69d2a47ea670b442974b53935d1edc7fd64eb21e047a839171b9190a45050565b6000610952836001600160a01b038416611565565b60008260000182815481106114ec576114ec611950565b9060005260206000200154905092915050565b60075460ff16156106045760405162461bcd60e51b815260206004820152602a60248201527f45524332305061757361626c653a20746f6b656e207472616e736665722077686044820152691a5b19481c185d5cd95960b21b60648201526084016105bd565b6000818152600183016020526040812054801561164e57600061158960018361188f565b855490915060009061159d9060019061188f565b90508181146116025760008660000182815481106115bd576115bd611950565b90600052602060002001549050808760000184815481106115e0576115e0611950565b6000918252602080832090910192909255918252600188019052604090208390555b85548690806116135761161361193a565b600190038181906000526020600020016000905590558560010160008681526020019081526020016000206000905560019350505050610481565b6000915050610481565b80356001600160a01b038116811461166f57600080fd5b919050565b60006020828403121561168657600080fd5b61095282611658565b600080604083850312156116a257600080fd5b6116ab83611658565b91506116b960208401611658565b90509250929050565b6000806000606084860312156116d757600080fd5b6116e084611658565b92506116ee60208501611658565b9150604084013590509250925092565b6000806040838503121561171157600080fd5b61171a83611658565b946020939093013593505050565b60006020828403121561173a57600080fd5b5035919050565b6000806040838503121561175457600080fd5b823591506116b960208401611658565b6000806040838503121561177757600080fd5b50508035926020909101359150565b60006020828403121561179857600080fd5b81356001600160e01b03198116811461095257600080fd5b7f416363657373436f6e74726f6c3a206163636f756e74200000000000000000008152600083516117e88160178501602088016118a6565b7001034b99036b4b9b9b4b733903937b6329607d1b60179184019182015283516118198160288401602088016118a6565b01602801949350505050565b60208152600082518060208401526118448160408501602087016118a6565b601f01601f19169190910160400192915050565b6000821982111561186b5761186b611924565b500190565b600081600019048311821515161561188a5761188a611924565b500290565b6000828210156118a1576118a1611924565b500390565b60005b838110156118c15781810151838201526020016118a9565b83811115610e4e5750506000910152565b6000816118e1576118e1611924565b506000190190565b600181811c908216806118fd57607f821691505b6020821081141561191e57634e487b7160e01b600052602260045260246000fd5b50919050565b634e487b7160e01b600052601160045260246000fd5b634e487b7160e01b600052603160045260246000fd5b634e487b7160e01b600052603260045260246000fd5b634e487b7160e01b600052604160045260246000fdfea2646970667358221220cb21467b5dccdc42c472981b6a540a9dfd34ad482ac4ea771a2640f19637633a64736f6c63430008060033",
  "linkReferences": {},
  "deployedLinkReferences": {}
}